{"abi":[{"type":"constructor","inputs":[{"name":"_devWallet","type":"address","internalType":"address"}],"stateMutability":"nonpayable"},{"type":"receive","stateMutability":"payable"},{"type":"function","name":"FEE_PERCENTAGE","inputs":[],"outputs":[{"name":"","type":"uint256","internalType":"uint256"}],"stateMutability":"view"},{"type":"function","name":"cancelLobby","inputs":[{"name":"lobbyId","type":"uint256","internalType":"uint256"}],"outputs":[],"stateMutability":"nonpayable"},{"type":"function","name":"createLobby","inputs":[{"name":"token","type":"address","internalType":"address"},{"name":"entryFee","type":"uint256","internalType":"uint256"},{"name":"maxPlayers","type":"uint16","internalType":"uint16"},{"name":"mode","type":"uint8","internalType":"uint8"}],"outputs":[{"name":"","type":"uint256","internalType":"uint256"}],"stateMutability":"nonpayable"},{"type":"function","name":"devWallet","inputs":[],"outputs":[{"name":"","type":"address","internalType":"address"}],"stateMutability":"view"},{"type":"function","name":"emergencyEndLobby","inputs":[{"name":"lobbyId","type":"uint256","internalType":"uint256"},{"name":"winners","type":"address[]","internalType":"address[]"}],"outputs":[],"stateMutability":"nonpayable"},{"type":"function","name":"emergencyWithdraw","inputs":[{"name":"token","type":"address","internalType":"address"},{"name":"amount","type":"uint256","internalType":"uint256"}],"outputs":[],"stateMutability":"nonpayable"},{"type":"function","name":"endLobby","inputs":[{"name":"lobbyId","type":"uint256","internalType":"uint256"},{"name":"winners","type":"address[]","internalType":"address[]"}],"outputs":[],"stateMutability":"nonpayable"},{"type":"function","name":"getLobbyInfo","inputs":[{"name":"lobbyId","type":"uint256","internalType":"uint256"}],"outputs":[{"name":"creator","type":"address","internalType":"address"},{"name":"token","type":"address","internalType":"address"},{"name":"entryFee","type":"uint256","internalType":"uint256"},{"name":"maxPlayers","type":"uint16","internalType":"uint16"},{"name":"mode","type":"uint8","internalType":"enum UnoLobbyV2.PaymentMode"},{"name":"state","type":"uint8","internalType":"enum UnoLobbyV2.LobbyState"},{"name":"players","type":"address[]","internalType":"address[]"},{"name":"createdAt","type":"uint256","internalType":"uint256"}],"stateMutability":"view"},{"type":"function","name":"getLobbyPlayers","inputs":[{"name":"lobbyId","type":"uint256","internalType":"uint256"}],"outputs":[{"name":"","type":"address[]","internalType":"address[]"}],"stateMutability":"view"},{"type":"function","name":"isPlayerInLobby","inputs":[{"name":"lobbyId","type":"uint256","internalType":"uint256"},{"name":"player","type":"address","internalType":"address"}],"outputs":[{"name":"","type":"bool","internalType":"bool"}],"stateMutability":"view"},{"type":"function","name":"joinLobby","inputs":[{"name":"lobbyId","type":"uint256","internalType":"uint256"}],"outputs":[],"stateMutability":"payable"},{"type":"function","name":"lobbies","inputs":[{"name":"","type":"uint256","internalType":"uint256"}],"outputs":[{"name":"creator","type":"address","internalType":"address"},{"name":"token","type":"address","internalType":"address"},{"name":"entryFee","type":"uint256","internalType":"uint256"},{"name":"maxPlayers","type":"uint16","internalType":"uint16"},{"name":"mode","type":"uint8","internalType":"enum UnoLobbyV2.PaymentMode"},{"name":"state","type":"uint8","internalType":"enum UnoLobbyV2.LobbyState"},{"name":"createdAt","type":"uint256","internalType":"uint256"}],"stateMutability":"view"},{"type":"function","name":"lobbyCount","inputs":[],"outputs":[{"name":"","type":"uint256","internalType":"uint256"}],"stateMutability":"view"},{"type":"function","name":"owner","inputs":[],"outputs":[{"name":"","type":"address","internalType":"address"}],"stateMutability":"view"},{"type":"function","name":"renounceOwnership","inputs":[],"outputs":[],"stateMutability":"nonpayable"},{"type":"function","name":"setDevWallet","inputs":[{"name":"_newDevWallet","type":"address","internalType":"address"}],"outputs":[],"stateMutability":"nonpayable"},{"type":"function","name":"transferOwnership","inputs":[{"name":"newOwner","type":"address","internalType":"address"}],"outputs":[],"stateMutability":"nonpayable"},{"type":"event","name":"DevWalletUpdated","inputs":[{"name":"oldWallet","type":"address","indexed":true,"internalType":"address"},{"name":"newWallet","type":"address","indexed":true,"internalType":"address"}],"anonymous":false},{"type":"event","name":"EmergencyWithdrawal","inputs":[{"name":"token","type":"address","indexed":true,"internalType":"address"},{"name":"amount","type":"uint256","indexed":false,"internalType":"uint256"},{"name":"to","type":"address","indexed":true,"internalType":"address"}],"anonymous":false},{"type":"event","name":"FeeTaken","inputs":[{"name":"lobbyId","type":"uint256","indexed":true,"internalType":"uint256"},{"name":"devWallet","type":"address","indexed":true,"internalType":"address"},{"name":"amount","type":"uint256","indexed":false,"internalType":"uint256"}],"anonymous":false},{"type":"event","name":"LobbyCancelled","inputs":[{"name":"lobbyId","type":"uint256","indexed":true,"internalType":"uint256"},{"name":"cancelledBy","type":"address","indexed":true,"internalType":"address"},{"name":"refundedPlayers","type":"uint256","indexed":false,"internalType":"uint256"}],"anonymous":false},{"type":"event","name":"LobbyCreated","inputs":[{"name":"lobbyId","type":"uint256","indexed":true,"internalType":"uint256"},{"name":"creator","type":"address","indexed":true,"internalType":"address"},{"name":"token","type":"address","indexed":false,"internalType":"address"},{"name":"entryFee","type":"uint256","indexed":false,"internalType":"uint256"},{"name":"maxPlayers","type":"uint16","indexed":false,"internalType":"uint16"},{"name":"mode","type":"uint8","indexed":false,"internalType":"uint8"}],"anonymous":false},{"type":"event","name":"LobbyEnded","inputs":[{"name":"lobbyId","type":"uint256","indexed":true,"internalType":"uint256"},{"name":"endedBy","type":"address","indexed":true,"internalType":"address"},{"name":"winners","type":"address[]","indexed":false,"internalType":"address[]"}],"anonymous":false},{"type":"event","name":"LobbyStarted","inputs":[{"name":"lobbyId","type":"uint256","indexed":true,"internalType":"uint256"},{"name":"playerCount","type":"uint256","indexed":false,"internalType":"uint256"}],"anonymous":false},{"type":"event","name":"OwnershipTransferred","inputs":[{"name":"previousOwner","type":"address","indexed":true,"internalType":"address"},{"name":"newOwner","type":"address","indexed":true,"internalType":"address"}],"anonymous":false},{"type":"event","name":"Payout","inputs":[{"name":"lobbyId","type":"uint256","indexed":true,"internalType":"uint256"},{"name":"to","type":"address","indexed":true,"internalType":"address"},{"name":"amount","type":"uint256","indexed":false,"internalType":"uint256"}],"anonymous":false},{"type":"event","name":"PlayerJoined","inputs":[{"name":"lobbyId","type":"uint256","indexed":true,"internalType":"uint256"},{"name":"player","type":"address","indexed":true,"internalType":"address"}],"anonymous":false},{"type":"error","name":"AlreadyJoined","inputs":[]},{"type":"error","name":"InvalidDevWallet","inputs":[]},{"type":"error","name":"InvalidEntryFee","inputs":[]},{"type":"error","name":"InvalidMaxPlayers","inputs":[]},{"type":"error","name":"InvalidWinners","inputs":[]},{"type":"error","name":"LobbyFull","inputs":[]},{"type":"error","name":"LobbyNotEnded","inputs":[]},{"type":"error","name":"LobbyNotOpen","inputs":[]},{"type":"error","name":"NoFundsToWithdraw","inputs":[]},{"type":"error","name":"NotAPlayer","inputs":[]},{"type":"error","name":"OwnableInvalidOwner","inputs":[{"name":"owner","type":"address","internalType":"address"}]},{"type":"error","name":"OwnableUnauthorizedAccount","inputs":[{"name":"account","type":"address","internalType":"address"}]},{"type":"error","name":"ReentrancyGuardReentrantCall","inputs":[]},{"type":"error","name":"SafeERC20FailedOperation","inputs":[{"name":"token","type":"address","internalType":"address"}]}],"bytecode":{"object":"0x608060405234801561000f575f5ffd5b506040516135fe3803806135fe83398181016040528101906100319190610283565b335f73ffffffffffffffffffffffffffffffffffffffff168173ffffffffffffffffffffffffffffffffffffffff16036100a2575f6040517f1e4fbdf700000000000000000000000000000000000000000000000000000000815260040161009991906102bd565b60405180910390fd5b6100b18161016460201b60201c565b50600180819055505f73ffffffffffffffffffffffffffffffffffffffff168173ffffffffffffffffffffffffffffffffffffffff160361011e576040517fef241aef00000000000000000000000000000000000000000000000000000000815260040160405180910390fd5b8060035f6101000a81548173ffffffffffffffffffffffffffffffffffffffff021916908373ffffffffffffffffffffffffffffffffffffffff160217905550506102d6565b5f5f5f9054906101000a900473ffffffffffffffffffffffffffffffffffffffff169050815f5f6101000a81548173ffffffffffffffffffffffffffffffffffffffff021916908373ffffffffffffffffffffffffffffffffffffffff1602179055508173ffffffffffffffffffffffffffffffffffffffff168173ffffffffffffffffffffffffffffffffffffffff167f8be0079c531659141344cd1fd0a4f28419497f9722a3daafe3b4186f6b6457e060405160405180910390a35050565b5f5ffd5b5f73ffffffffffffffffffffffffffffffffffffffff82169050919050565b5f61025282610229565b9050919050565b61026281610248565b811461026c575f5ffd5b50565b5f8151905061027d81610259565b92915050565b5f6020828403121561029857610297610225565b5b5f6102a58482850161026f565b91505092915050565b6102b781610248565b82525050565b5f6020820190506102d05f8301846102ae565b92915050565b61331b806102e35f395ff3fe608060405260043610610100575f3560e01c80638da5cb5b11610094578063ba57082711610063578063ba57082714610328578063e9173b3a14610364578063eff3d30614610380578063f16277bb146103aa578063f2fde38b146103e657610107565b80638da5cb5b146102845780638ea5220f146102ae57806395ccea67146102d8578063a4a9a4ad1461030057610107565b8063559ab8cc116100d0578063559ab8cc146101c857806365ec803a146102045780636e8fb4c61461022c578063715018a61461026e57610107565b80620b46f81461010b5780631da7d16a146101355780631f53ac021461015d57806339cae11c1461018557610107565b3661010757005b5f5ffd5b348015610116575f5ffd5b5061011f61040e565b60405161012c91906127fd565b60405180910390f35b348015610140575f5ffd5b5061015b600480360381019061015691906128a9565b610413565b005b348015610168575f5ffd5b50610183600480360381019061017e9190612960565b610c9e565b005b348015610190575f5ffd5b506101ab60048036038101906101a6919061298b565b610dce565b6040516101bf989796959493929190612b51565b60405180910390f35b3480156101d3575f5ffd5b506101ee60048036038101906101e99190612bd4565b610f17565b6040516101fb9190612c2c565b60405180910390f35b34801561020f575f5ffd5b5061022a600480360381019061022591906128a9565b610fd4565b005b348015610237575f5ffd5b50610252600480360381019061024d919061298b565b61164c565b6040516102659796959493929190612c45565b60405180910390f35b348015610279575f5ffd5b506102826116ef565b005b34801561028f575f5ffd5b50610298611702565b6040516102a59190612cb2565b60405180910390f35b3480156102b9575f5ffd5b506102c2611729565b6040516102cf9190612cb2565b60405180910390f35b3480156102e3575f5ffd5b506102fe60048036038101906102f99190612ccb565b61174e565b005b34801561030b575f5ffd5b506103266004803603810190610321919061298b565b611913565b005b348015610333575f5ffd5b5061034e60048036038101906103499190612d69565b611c23565b60405161035b91906127fd565b60405180910390f35b61037e6004803603810190610379919061298b565b611e9f565b005b34801561038b575f5ffd5b50610394612270565b6040516103a191906127fd565b60405180910390f35b3480156103b5575f5ffd5b506103d060048036038101906103cb919061298b565b612276565b6040516103dd9190612dcd565b60405180910390f35b3480156103f1575f5ffd5b5061040c60048036038101906104079190612960565b612315565b005b600581565b61041b612399565b5f60045f8581526020019081526020015f20905060016003811115610443576104426129e1565b5b8160030160039054906101000a900460ff166003811115610467576104666129e1565b5b141580156104aa57505f6003811115610483576104826129e1565b5b8160030160039054906101000a900460ff1660038111156104a7576104a66129e1565b5b14155b156104e1576040517f7a62762300000000000000000000000000000000000000000000000000000000815260040160405180910390fd5b5f5f90505f5f90505b826004018054905081101561057f573373ffffffffffffffffffffffffffffffffffffffff1683600401828154811061052657610525612ded565b5b905f5260205f20015f9054906101000a900473ffffffffffffffffffffffffffffffffffffffff1673ffffffffffffffffffffffffffffffffffffffff1603610572576001915061057f565b80806001019150506104ea565b50806105b7576040517fabca351700000000000000000000000000000000000000000000000000000000815260040160405180910390fd5b5f8484905014806105cb5750600384849050115b15610602576040517fcfdacc2b00000000000000000000000000000000000000000000000000000000815260040160405180910390fd5b5f5f90505b8484905081101561071d575f5f90505f5f90505b84600401805490508110156106d75786868481811061063d5761063c612ded565b5b90506020020160208101906106529190612960565b73ffffffffffffffffffffffffffffffffffffffff1685600401828154811061067e5761067d612ded565b5b905f5260205f20015f9054906101000a900473ffffffffffffffffffffffffffffffffffffffff1673ffffffffffffffffffffffffffffffffffffffff16036106ca57600191506106d7565b808060010191505061061b565b508061070f576040517fcfdacc2b00000000000000000000000000000000000000000000000000000000815260040160405180910390fd5b508080600101915050610607565b5060028260030160036101000a81548160ff02191690836003811115610746576107456129e1565b5b02179055505f826004018054905083600201546107639190612e47565b90505f60646005836107759190612e47565b61077f9190612eb5565b90505f818361078e9190612ee5565b90505f821115610858576107e7856001015f9054906101000a900473ffffffffffffffffffffffffffffffffffffffff1660035f9054906101000a900473ffffffffffffffffffffffffffffffffffffffff16846123df565b60035f9054906101000a900473ffffffffffffffffffffffffffffffffffffffff1673ffffffffffffffffffffffffffffffffffffffff16887f92f3bfc40bb172da28c752f0e306286ffd8044dacf3617d8fa730bb2cf57537b8460405161084f91906127fd565b60405180910390a35b5f600181111561086b5761086a6129e1565b5b8560030160029054906101000a900460ff16600181111561088f5761088e6129e1565b5b03610964576108e9856001015f9054906101000a900473ffffffffffffffffffffffffffffffffffffffff1688885f8181106108ce576108cd612ded565b5b90506020020160208101906108e39190612960565b836123df565b86865f8181106108fc576108fb612ded565b5b90506020020160208101906109119190612960565b73ffffffffffffffffffffffffffffffffffffffff16887f5f7341a552ae2d452b071917104c05fbac3663936a69be768a05c40605056e7d8360405161095791906127fd565b60405180910390a3610c3b565b5f6064603c836109749190612e47565b61097e9190612eb5565b90505f60646014846109909190612e47565b61099a9190612eb5565b90505f6064600f856109ac9190612e47565b6109b69190612eb5565b9050610a0d886001015f9054906101000a900473ffffffffffffffffffffffffffffffffffffffff168b8b5f8181106109f2576109f1612ded565b5b9050602002016020810190610a079190612960565b856123df565b89895f818110610a2057610a1f612ded565b5b9050602002016020810190610a359190612960565b73ffffffffffffffffffffffffffffffffffffffff168b7f5f7341a552ae2d452b071917104c05fbac3663936a69be768a05c40605056e7d85604051610a7b91906127fd565b60405180910390a360018a8a90501115610b5d57610ae5886001015f9054906101000a900473ffffffffffffffffffffffffffffffffffffffff168b8b6001818110610aca57610ac9612ded565b5b9050602002016020810190610adf9190612960565b846123df565b89896001818110610af957610af8612ded565b5b9050602002016020810190610b0e9190612960565b73ffffffffffffffffffffffffffffffffffffffff168b7f5f7341a552ae2d452b071917104c05fbac3663936a69be768a05c40605056e7d84604051610b5491906127fd565b60405180910390a35b60028a8a90501115610c3757610bbf886001015f9054906101000a900473ffffffffffffffffffffffffffffffffffffffff168b8b6002818110610ba457610ba3612ded565b5b9050602002016020810190610bb99190612960565b836123df565b89896002818110610bd357610bd2612ded565b5b9050602002016020810190610be89190612960565b73ffffffffffffffffffffffffffffffffffffffff168b7f5f7341a552ae2d452b071917104c05fbac3663936a69be768a05c40605056e7d83604051610c2e91906127fd565b60405180910390a35b5050505b3373ffffffffffffffffffffffffffffffffffffffff16887fe7d1b79d5f7ed90d7715887f7c54f2efb303fc3ea48b770c52c2fab17ffa5c178989604051610c84929190612f9e565b60405180910390a35050505050610c996124f1565b505050565b610ca66124fa565b5f73ffffffffffffffffffffffffffffffffffffffff168173ffffffffffffffffffffffffffffffffffffffff1603610d0b576040517fef241aef00000000000000000000000000000000000000000000000000000000815260040160405180910390fd5b5f60035f9054906101000a900473ffffffffffffffffffffffffffffffffffffffff1690508160035f6101000a81548173ffffffffffffffffffffffffffffffffffffffff021916908373ffffffffffffffffffffffffffffffffffffffff1602179055508173ffffffffffffffffffffffffffffffffffffffff168173ffffffffffffffffffffffffffffffffffffffff167f0db17895a9d092fb3ca24d626f2150dd80c185b0706b36f1040ee239f56cb87160405160405180910390a35050565b5f5f5f5f5f5f60605f5f60045f8b81526020019081526020015f209050805f015f9054906101000a900473ffffffffffffffffffffffffffffffffffffffff16816001015f9054906101000a900473ffffffffffffffffffffffffffffffffffffffff168260020154836003015f9054906101000a900461ffff168460030160029054906101000a900460ff168560030160039054906101000a900460ff1686600401876005015481805480602002602001604051908101604052809291908181526020018280548015610ef457602002820191905f5260205f20905b815f9054906101000a900473ffffffffffffffffffffffffffffffffffffffff1673ffffffffffffffffffffffffffffffffffffffff1681526020019060010190808311610eab575b505050505091509850985098509850985098509850985050919395975091939597565b5f5f60045f8581526020019081526020015f2090505f5f90505b8160040180549050811015610fc8578373ffffffffffffffffffffffffffffffffffffffff16826004018281548110610f6d57610f6c612ded565b5b905f5260205f20015f9054906101000a900473ffffffffffffffffffffffffffffffffffffffff1673ffffffffffffffffffffffffffffffffffffffff1603610fbb57600192505050610fce565b8080600101915050610f31565b505f9150505b92915050565b610fdc6124fa565b5f60045f8581526020019081526020015f20905060026003811115611004576110036129e1565b5b8160030160039054906101000a900460ff166003811115611028576110276129e1565b5b14806110685750600380811115611042576110416129e1565b5b8160030160039054906101000a900460ff166003811115611066576110656129e1565b5b145b156110a8576040517f08c379a000000000000000000000000000000000000000000000000000000000815260040161109f9061301a565b60405180910390fd5b60018160030160036101000a81548160ff021916908360038111156110d0576110cf6129e1565b5b021790555060028160030160036101000a81548160ff021916908360038111156110fd576110fc6129e1565b5b02179055505f8160040180549050826002015461111a9190612e47565b90505f606460058361112c9190612e47565b6111369190612eb5565b90505f81836111459190612ee5565b90505f82111561120f5761119e846001015f9054906101000a900473ffffffffffffffffffffffffffffffffffffffff1660035f9054906101000a900473ffffffffffffffffffffffffffffffffffffffff16846123df565b60035f9054906101000a900473ffffffffffffffffffffffffffffffffffffffff1673ffffffffffffffffffffffffffffffffffffffff16877f92f3bfc40bb172da28c752f0e306286ffd8044dacf3617d8fa730bb2cf57537b8460405161120691906127fd565b60405180910390a35b5f6001811115611222576112216129e1565b5b8460030160029054906101000a900460ff166001811115611246576112456129e1565b5b0361131b576112a0846001015f9054906101000a900473ffffffffffffffffffffffffffffffffffffffff1687875f81811061128557611284612ded565b5b905060200201602081019061129a9190612960565b836123df565b85855f8181106112b3576112b2612ded565b5b90506020020160208101906112c89190612960565b73ffffffffffffffffffffffffffffffffffffffff16877f5f7341a552ae2d452b071917104c05fbac3663936a69be768a05c40605056e7d8360405161130e91906127fd565b60405180910390a36115f2565b5f6064603c8361132b9190612e47565b6113359190612eb5565b90505f60646014846113479190612e47565b6113519190612eb5565b90505f6064600f856113639190612e47565b61136d9190612eb5565b90506113c4876001015f9054906101000a900473ffffffffffffffffffffffffffffffffffffffff168a8a5f8181106113a9576113a8612ded565b5b90506020020160208101906113be9190612960565b856123df565b88885f8181106113d7576113d6612ded565b5b90506020020160208101906113ec9190612960565b73ffffffffffffffffffffffffffffffffffffffff168a7f5f7341a552ae2d452b071917104c05fbac3663936a69be768a05c40605056e7d8560405161143291906127fd565b60405180910390a360018989905011156115145761149c876001015f9054906101000a900473ffffffffffffffffffffffffffffffffffffffff168a8a600181811061148157611480612ded565b5b90506020020160208101906114969190612960565b846123df565b888860018181106114b0576114af612ded565b5b90506020020160208101906114c59190612960565b73ffffffffffffffffffffffffffffffffffffffff168a7f5f7341a552ae2d452b071917104c05fbac3663936a69be768a05c40605056e7d8460405161150b91906127fd565b60405180910390a35b60028989905011156115ee57611576876001015f9054906101000a900473ffffffffffffffffffffffffffffffffffffffff168a8a600281811061155b5761155a612ded565b5b90506020020160208101906115709190612960565b836123df565b8888600281811061158a57611589612ded565b5b905060200201602081019061159f9190612960565b73ffffffffffffffffffffffffffffffffffffffff168a7f5f7341a552ae2d452b071917104c05fbac3663936a69be768a05c40605056e7d836040516115e591906127fd565b60405180910390a35b5050505b3373ffffffffffffffffffffffffffffffffffffffff16877fe7d1b79d5f7ed90d7715887f7c54f2efb303fc3ea48b770c52c2fab17ffa5c17888860405161163b929190612f9e565b60405180910390a350505050505050565b6004602052805f5260405f205f91509050805f015f9054906101000a900473ffffffffffffffffffffffffffffffffffffffff1690806001015f9054906101000a900473ffffffffffffffffffffffffffffffffffffffff1690806002015490806003015f9054906101000a900461ffff16908060030160029054906101000a900460ff16908060030160039054906101000a900460ff16908060050154905087565b6116f76124fa565b6117005f612581565b565b5f5f5f9054906101000a900473ffffffffffffffffffffffffffffffffffffffff16905090565b60035f9054906101000a900473ffffffffffffffffffffffffffffffffffffffff1681565b6117566124fa565b61175e612399565b5f8103611797576040517f67e3990d00000000000000000000000000000000000000000000000000000000815260040160405180910390fd5b5f5f73ffffffffffffffffffffffffffffffffffffffff168373ffffffffffffffffffffffffffffffffffffffff16036117d35747905061184e565b8273ffffffffffffffffffffffffffffffffffffffff166370a08231306040518263ffffffff1660e01b815260040161180c9190612cb2565b602060405180830381865afa158015611827573d5f5f3e3d5ffd5b505050506040513d601f19601f8201168201806040525081019061184b919061304c565b90505b81811015611888576040517f67e3990d00000000000000000000000000000000000000000000000000000000815260040160405180910390fd5b61189a83611894611702565b846123df565b6118a2611702565b73ffffffffffffffffffffffffffffffffffffffff168373ffffffffffffffffffffffffffffffffffffffff167f3ab9db27a4cdd8c603a752b62d5fbd93b4b3509fe2596708e9688e42bbac3576846040516118fe91906127fd565b60405180910390a35061190f6124f1565b5050565b61191b612399565b5f60045f8381526020019081526020015f2090505f6003811115611942576119416129e1565b5b8160030160039054906101000a900460ff166003811115611966576119656129e1565b5b1461199d576040517fe9e2cbf600000000000000000000000000000000000000000000000000000000815260040160405180910390fd5b805f015f9054906101000a900473ffffffffffffffffffffffffffffffffffffffff1673ffffffffffffffffffffffffffffffffffffffff163373ffffffffffffffffffffffffffffffffffffffff1614158015611a2e57506119fe611702565b73ffffffffffffffffffffffffffffffffffffffff163373ffffffffffffffffffffffffffffffffffffffff1614155b15611a6e576040517f08c379a0000000000000000000000000000000000000000000000000000000008152600401611a65906130c1565b60405180910390fd5b60038160030160036101000a81548160ff02191690836003811115611a9657611a956129e1565b5b02179055505f816004018054905090505f5f90505b8260040180549050811015611bc657611b29836001015f9054906101000a900473ffffffffffffffffffffffffffffffffffffffff16846004018381548110611af757611af6612ded565b5b905f5260205f20015f9054906101000a900473ffffffffffffffffffffffffffffffffffffffff1685600201546123df565b826004018181548110611b3f57611b3e612ded565b5b905f5260205f20015f9054906101000a900473ffffffffffffffffffffffffffffffffffffffff1673ffffffffffffffffffffffffffffffffffffffff16847f5f7341a552ae2d452b071917104c05fbac3663936a69be768a05c40605056e7d8560020154604051611bb191906127fd565b60405180910390a38080600101915050611aab565b503373ffffffffffffffffffffffffffffffffffffffff16837f901c4b3ed78d5e3b588d41243171cd614027f155b6ab58c0af1b6c75ca66d1e183604051611c0e91906127fd565b60405180910390a35050611c206124f1565b50565b5f5f8403611c5d576040517f6fe6a4c900000000000000000000000000000000000000000000000000000000815260040160405180910390fd5b60028361ffff161080611c74575060048361ffff16115b15611cab576040517f65d4be2900000000000000000000000000000000000000000000000000000000815260040160405180910390fd5b60018260ff161115611cf2576040517f08c379a0000000000000000000000000000000000000000000000000000000008152600401611ce990613129565b60405180910390fd5b5f60025f8154611d0190613147565b91905081905590505f60045f8381526020019081526020015f20905033815f015f6101000a81548173ffffffffffffffffffffffffffffffffffffffff021916908373ffffffffffffffffffffffffffffffffffffffff16021790555086816001015f6101000a81548173ffffffffffffffffffffffffffffffffffffffff021916908373ffffffffffffffffffffffffffffffffffffffff16021790555085816002018190555084816003015f6101000a81548161ffff021916908361ffff1602179055508360ff166001811115611ddd57611ddc6129e1565b5b8160030160026101000a81548160ff02191690836001811115611e0357611e026129e1565b5b02179055505f8160030160036101000a81548160ff02191690836003811115611e2f57611e2e6129e1565b5b02179055504281600501819055503373ffffffffffffffffffffffffffffffffffffffff16827f50ced92c6370d952755194eec7ad4544a130a77bb29a5f6609a48057ae35c25389898989604051611e8a949392919061319d565b60405180910390a38192505050949350505050565b611ea7612399565b5f60045f8381526020019081526020015f2090505f6003811115611ece57611ecd6129e1565b5b8160030160039054906101000a900460ff166003811115611ef257611ef16129e1565b5b14611f29576040517fe9e2cbf600000000000000000000000000000000000000000000000000000000815260040160405180910390fd5b806003015f9054906101000a900461ffff1661ffff16816004018054905010611f7e576040517fbe02dee700000000000000000000000000000000000000000000000000000000815260040160405180910390fd5b5f5f90505b8160040180549050811015612040573373ffffffffffffffffffffffffffffffffffffffff16826004018281548110611fbf57611fbe612ded565b5b905f5260205f20015f9054906101000a900473ffffffffffffffffffffffffffffffffffffffff1673ffffffffffffffffffffffffffffffffffffffff1603612033576040517e3b268200000000000000000000000000000000000000000000000000000000815260040160405180910390fd5b8080600101915050611f83565b505f73ffffffffffffffffffffffffffffffffffffffff16816001015f9054906101000a900473ffffffffffffffffffffffffffffffffffffffff1673ffffffffffffffffffffffffffffffffffffffff16036120d957806002015434146120d4576040517f6fe6a4c900000000000000000000000000000000000000000000000000000000815260040160405180910390fd5b61212e565b61212d33308360020154846001015f9054906101000a900473ffffffffffffffffffffffffffffffffffffffff1673ffffffffffffffffffffffffffffffffffffffff16612642909392919063ffffffff16565b5b8060040133908060018154018082558091505060019003905f5260205f20015f9091909190916101000a81548173ffffffffffffffffffffffffffffffffffffffff021916908373ffffffffffffffffffffffffffffffffffffffff1602179055503373ffffffffffffffffffffffffffffffffffffffff16827f87969bc7faf902221a147b95ceba76e011c5efb0339a0a8ee7a2bb82d9cfbbd660405160405180910390a3806003015f9054906101000a900461ffff1661ffff168160040180549050036122645760018160030160036101000a81548160ff0219169083600381111561221f5761221e6129e1565b5b0217905550817fdc612c71c95c02750099361afeddf97cce694622888876cb8c6bfd6e4494ce69826004018054905060405161225b91906127fd565b60405180910390a25b5061226d6124f1565b50565b60025481565b606060045f8381526020019081526020015f2060040180548060200260200160405190810160405280929190818152602001828054801561230957602002820191905f5260205f20905b815f9054906101000a900473ffffffffffffffffffffffffffffffffffffffff1673ffffffffffffffffffffffffffffffffffffffff16815260200190600101908083116122c0575b50505050509050919050565b61231d6124fa565b5f73ffffffffffffffffffffffffffffffffffffffff168173ffffffffffffffffffffffffffffffffffffffff160361238d575f6040517f1e4fbdf70000000000000000000000000000000000000000000000000000000081526004016123849190612cb2565b60405180910390fd5b61239681612581565b50565b6002600154036123d5576040517f3ee5aeb500000000000000000000000000000000000000000000000000000000815260040160405180910390fd5b6002600181905550565b5f73ffffffffffffffffffffffffffffffffffffffff168373ffffffffffffffffffffffffffffffffffffffff16036124c0575f8273ffffffffffffffffffffffffffffffffffffffff16826040516124379061320d565b5f6040518083038185875af1925050503d805f8114612471576040519150601f19603f3d011682016040523d82523d5f602084013e612476565b606091505b50509050806124ba576040517f08c379a00000000000000000000000000000000000000000000000000000000081526004016124b19061326b565b60405180910390fd5b506124ec565b6124eb82828573ffffffffffffffffffffffffffffffffffffffff166126c49092919063ffffffff16565b5b505050565b60018081905550565b612502612743565b73ffffffffffffffffffffffffffffffffffffffff16612520611702565b73ffffffffffffffffffffffffffffffffffffffff161461257f57612543612743565b6040517f118cdaa70000000000000000000000000000000000000000000000000000000081526004016125769190612cb2565b60405180910390fd5b565b5f5f5f9054906101000a900473ffffffffffffffffffffffffffffffffffffffff169050815f5f6101000a81548173ffffffffffffffffffffffffffffffffffffffff021916908373ffffffffffffffffffffffffffffffffffffffff1602179055508173ffffffffffffffffffffffffffffffffffffffff168173ffffffffffffffffffffffffffffffffffffffff167f8be0079c531659141344cd1fd0a4f28419497f9722a3daafe3b4186f6b6457e060405160405180910390a35050565b6126be848573ffffffffffffffffffffffffffffffffffffffff166323b872dd86868660405160240161267793929190613289565b604051602081830303815290604052915060e01b6020820180517bffffffffffffffffffffffffffffffffffffffffffffffffffffffff838183161783525050505061274a565b50505050565b61273e838473ffffffffffffffffffffffffffffffffffffffff1663a9059cbb85856040516024016126f79291906132be565b604051602081830303815290604052915060e01b6020820180517bffffffffffffffffffffffffffffffffffffffffffffffffffffffff838183161783525050505061274a565b505050565b5f33905090565b5f5f60205f8451602086015f885af180612769576040513d5f823e3d81fd5b3d92505f519150505f821461278257600181141561279d565b5f8473ffffffffffffffffffffffffffffffffffffffff163b145b156127df57836040517f5274afe70000000000000000000000000000000000000000000000000000000081526004016127d69190612cb2565b60405180910390fd5b50505050565b5f819050919050565b6127f7816127e5565b82525050565b5f6020820190506128105f8301846127ee565b92915050565b5f5ffd5b5f5ffd5b612827816127e5565b8114612831575f5ffd5b50565b5f813590506128428161281e565b92915050565b5f5ffd5b5f5ffd5b5f5ffd5b5f5f83601f84011261286957612868612848565b5b8235905067ffffffffffffffff8111156128865761288561284c565b5b6020830191508360208202830111156128a2576128a1612850565b5b9250929050565b5f5f5f604084860312156128c0576128bf612816565b5b5f6128cd86828701612834565b935050602084013567ffffffffffffffff8111156128ee576128ed61281a565b5b6128fa86828701612854565b92509250509250925092565b5f73ffffffffffffffffffffffffffffffffffffffff82169050919050565b5f61292f82612906565b9050919050565b61293f81612925565b8114612949575f5ffd5b50565b5f8135905061295a81612936565b92915050565b5f6020828403121561297557612974612816565b5b5f6129828482850161294c565b91505092915050565b5f602082840312156129a05761299f612816565b5b5f6129ad84828501612834565b91505092915050565b6129bf81612925565b82525050565b5f61ffff82169050919050565b6129db816129c5565b82525050565b7f4e487b71000000000000000000000000000000000000000000000000000000005f52602160045260245ffd5b60028110612a1f57612a1e6129e1565b5b50565b5f819050612a2f82612a0e565b919050565b5f612a3e82612a22565b9050919050565b612a4e81612a34565b82525050565b60048110612a6557612a646129e1565b5b50565b5f819050612a7582612a54565b919050565b5f612a8482612a68565b9050919050565b612a9481612a7a565b82525050565b5f81519050919050565b5f82825260208201905092915050565b5f819050602082019050919050565b612acc81612925565b82525050565b5f612add8383612ac3565b60208301905092915050565b5f602082019050919050565b5f612aff82612a9a565b612b098185612aa4565b9350612b1483612ab4565b805f5b83811015612b44578151612b2b8882612ad2565b9750612b3683612ae9565b925050600181019050612b17565b5085935050505092915050565b5f61010082019050612b655f83018b6129b6565b612b72602083018a6129b6565b612b7f60408301896127ee565b612b8c60608301886129d2565b612b996080830187612a45565b612ba660a0830186612a8b565b81810360c0830152612bb88185612af5565b9050612bc760e08301846127ee565b9998505050505050505050565b5f5f60408385031215612bea57612be9612816565b5b5f612bf785828601612834565b9250506020612c088582860161294c565b9150509250929050565b5f8115159050919050565b612c2681612c12565b82525050565b5f602082019050612c3f5f830184612c1d565b92915050565b5f60e082019050612c585f83018a6129b6565b612c6560208301896129b6565b612c7260408301886127ee565b612c7f60608301876129d2565b612c8c6080830186612a45565b612c9960a0830185612a8b565b612ca660c08301846127ee565b98975050505050505050565b5f602082019050612cc55f8301846129b6565b92915050565b5f5f60408385031215612ce157612ce0612816565b5b5f612cee8582860161294c565b9250506020612cff85828601612834565b9150509250929050565b612d12816129c5565b8114612d1c575f5ffd5b50565b5f81359050612d2d81612d09565b92915050565b5f60ff82169050919050565b612d4881612d33565b8114612d52575f5ffd5b50565b5f81359050612d6381612d3f565b92915050565b5f5f5f5f60808587031215612d8157612d80612816565b5b5f612d8e8782880161294c565b9450506020612d9f87828801612834565b9350506040612db087828801612d1f565b9250506060612dc187828801612d55565b91505092959194509250565b5f6020820190508181035f830152612de58184612af5565b905092915050565b7f4e487b71000000000000000000000000000000000000000000000000000000005f52603260045260245ffd5b7f4e487b71000000000000000000000000000000000000000000000000000000005f52601160045260245ffd5b5f612e51826127e5565b9150612e5c836127e5565b9250828202612e6a816127e5565b91508282048414831517612e8157612e80612e1a565b5b5092915050565b7f4e487b71000000000000000000000000000000000000000000000000000000005f52601260045260245ffd5b5f612ebf826127e5565b9150612eca836127e5565b925082612eda57612ed9612e88565b5b828204905092915050565b5f612eef826127e5565b9150612efa836127e5565b9250828203905081811115612f1257612f11612e1a565b5b92915050565b5f819050919050565b5f612f2f602084018461294c565b905092915050565b5f602082019050919050565b5f612f4e8385612aa4565b9350612f5982612f18565b805f5b85811015612f9157612f6e8284612f21565b612f788882612ad2565b9750612f8383612f37565b925050600181019050612f5c565b5085925050509392505050565b5f6020820190508181035f830152612fb7818486612f43565b90509392505050565b5f82825260208201905092915050565b7f4c6f62627920616c72656164792066696e6973686564000000000000000000005f82015250565b5f613004601683612fc0565b915061300f82612fd0565b602082019050919050565b5f6020820190508181035f83015261303181612ff8565b9050919050565b5f815190506130468161281e565b92915050565b5f6020828403121561306157613060612816565b5b5f61306e84828501613038565b91505092915050565b7f4f6e6c792063726561746f72206f72206f776e65722063616e2063616e63656c5f82015250565b5f6130ab602083612fc0565b91506130b682613077565b602082019050919050565b5f6020820190508181035f8301526130d88161309f565b9050919050565b7f496e76616c6964207061796d656e74206d6f64650000000000000000000000005f82015250565b5f613113601483612fc0565b915061311e826130df565b602082019050919050565b5f6020820190508181035f83015261314081613107565b9050919050565b5f613151826127e5565b91507fffffffffffffffffffffffffffffffffffffffffffffffffffffffffffffffff820361318357613182612e1a565b5b600182019050919050565b61319781612d33565b82525050565b5f6080820190506131b05f8301876129b6565b6131bd60208301866127ee565b6131ca60408301856129d2565b6131d7606083018461318e565b95945050505050565b5f81905092915050565b50565b5f6131f85f836131e0565b9150613203826131ea565b5f82019050919050565b5f613217826131ed565b9150819050919050565b7f455448207472616e73666572206661696c6564000000000000000000000000005f82015250565b5f613255601383612fc0565b915061326082613221565b602082019050919050565b5f6020820190508181035f83015261328281613249565b9050919050565b5f60608201905061329c5f8301866129b6565b6132a960208301856129b6565b6132b660408301846127ee565b949350505050565b5f6040820190506132d15f8301856129b6565b6132de60208301846127ee565b939250505056fea2646970667358221220a21ccacb4cd43282c9196ff3065333234df838e187e1a7979c8941d46df21a0764736f6c634300081e0033","linkReferences":{}},"methodIdentifiers":{"FEE_PERCENTAGE()":"000b46f8","cancelLobby(uint256)":"a4a9a4ad","createLobby(address,uint256,uint16,uint8)":"ba570827","devWallet()":"8ea5220f","emergencyEndLobby(uint256,address[])":"65ec803a","emergencyWithdraw(address,uint256)":"95ccea67","endLobby(uint256,address[])":"1da7d16a","getLobbyInfo(uint256)":"39cae11c","getLobbyPlayers(uint256)":"f16277bb","isPlayerInLobby(uint256,address)":"559ab8cc","joinLobby(uint256)":"e9173b3a","lobbies(uint256)":"6e8fb4c6","lobbyCount()":"eff3d306","owner()":"8da5cb5b","renounceOwnership()":"715018a6","setDevWallet(address)":"1f53ac02","transferOwnership(address)":"f2fde38b"},"id":2}