{"abi":[{"type":"constructor","inputs":[{"name":"_devWallet","type":"address","internalType":"address"}],"stateMutability":"nonpayable"},{"type":"receive","stateMutability":"payable"},{"type":"function","name":"DEV_FEE_PCT","inputs":[],"outputs":[{"name":"","type":"uint256","internalType":"uint256"}],"stateMutability":"view"},{"type":"function","name":"authorized","inputs":[{"name":"","type":"address","internalType":"address"}],"outputs":[{"name":"","type":"bool","internalType":"bool"}],"stateMutability":"view"},{"type":"function","name":"cancelLobby","inputs":[{"name":"lobbyId","type":"uint256","internalType":"uint256"}],"outputs":[],"stateMutability":"nonpayable"},{"type":"function","name":"createLobby","inputs":[{"name":"token","type":"address","internalType":"address"},{"name":"entryFee","type":"uint256","internalType":"uint256"},{"name":"maxPlayers","type":"uint16","internalType":"uint16"},{"name":"mode","type":"uint8","internalType":"enum UnoLobby.Mode"}],"outputs":[{"name":"","type":"uint256","internalType":"uint256"}],"stateMutability":"nonpayable"},{"type":"function","name":"devWallet","inputs":[],"outputs":[{"name":"","type":"address","internalType":"address"}],"stateMutability":"view"},{"type":"function","name":"endLobby","inputs":[{"name":"lobbyId","type":"uint256","internalType":"uint256"},{"name":"winners","type":"address[]","internalType":"address[]"}],"outputs":[],"stateMutability":"nonpayable"},{"type":"function","name":"getLobbyPlayers","inputs":[{"name":"lobbyId","type":"uint256","internalType":"uint256"}],"outputs":[{"name":"","type":"address[]","internalType":"address[]"}],"stateMutability":"view"},{"type":"function","name":"joinLobby","inputs":[{"name":"lobbyId","type":"uint256","internalType":"uint256"}],"outputs":[],"stateMutability":"payable"},{"type":"function","name":"lobbyCount","inputs":[],"outputs":[{"name":"","type":"uint256","internalType":"uint256"}],"stateMutability":"view"},{"type":"function","name":"owner","inputs":[],"outputs":[{"name":"","type":"address","internalType":"address"}],"stateMutability":"view"},{"type":"function","name":"renounceOwnership","inputs":[],"outputs":[],"stateMutability":"nonpayable"},{"type":"function","name":"setAuthorized","inputs":[{"name":"who","type":"address","internalType":"address"},{"name":"ok","type":"bool","internalType":"bool"}],"outputs":[],"stateMutability":"nonpayable"},{"type":"function","name":"setDevWallet","inputs":[{"name":"_devWallet","type":"address","internalType":"address"}],"outputs":[],"stateMutability":"nonpayable"},{"type":"function","name":"transferOwnership","inputs":[{"name":"newOwner","type":"address","internalType":"address"}],"outputs":[],"stateMutability":"nonpayable"},{"type":"event","name":"FeeTaken","inputs":[{"name":"lobbyId","type":"uint256","indexed":true,"internalType":"uint256"},{"name":"to","type":"address","indexed":true,"internalType":"address"},{"name":"amount","type":"uint256","indexed":false,"internalType":"uint256"}],"anonymous":false},{"type":"event","name":"LobbyCreated","inputs":[{"name":"lobbyId","type":"uint256","indexed":true,"internalType":"uint256"},{"name":"creator","type":"address","indexed":true,"internalType":"address"},{"name":"token","type":"address","indexed":false,"internalType":"address"},{"name":"entryFee","type":"uint256","indexed":false,"internalType":"uint256"},{"name":"maxPlayers","type":"uint16","indexed":false,"internalType":"uint16"},{"name":"mode","type":"uint8","indexed":false,"internalType":"enum UnoLobby.Mode"}],"anonymous":false},{"type":"event","name":"LobbyEnded","inputs":[{"name":"lobbyId","type":"uint256","indexed":true,"internalType":"uint256"},{"name":"endedBy","type":"address","indexed":true,"internalType":"address"},{"name":"winners","type":"address[]","indexed":false,"internalType":"address[]"}],"anonymous":false},{"type":"event","name":"OwnershipTransferred","inputs":[{"name":"previousOwner","type":"address","indexed":true,"internalType":"address"},{"name":"newOwner","type":"address","indexed":true,"internalType":"address"}],"anonymous":false},{"type":"event","name":"Payout","inputs":[{"name":"lobbyId","type":"uint256","indexed":true,"internalType":"uint256"},{"name":"to","type":"address","indexed":true,"internalType":"address"},{"name":"amount","type":"uint256","indexed":false,"internalType":"uint256"}],"anonymous":false},{"type":"event","name":"PlayerJoined","inputs":[{"name":"lobbyId","type":"uint256","indexed":true,"internalType":"uint256"},{"name":"player","type":"address","indexed":true,"internalType":"address"}],"anonymous":false},{"type":"error","name":"OwnableInvalidOwner","inputs":[{"name":"owner","type":"address","internalType":"address"}]},{"type":"error","name":"OwnableUnauthorizedAccount","inputs":[{"name":"account","type":"address","internalType":"address"}]},{"type":"error","name":"ReentrancyGuardReentrantCall","inputs":[]},{"type":"error","name":"SafeERC20FailedOperation","inputs":[{"name":"token","type":"address","internalType":"address"}]}],"bytecode":{"object":"0x608060405234801561000f575f5ffd5b506040516118a43803806118a483398101604081905261002e91610123565b60015f55338061005857604051631e4fbdf760e01b81525f60048201526024015b60405180910390fd5b610061816100d2565b506001600160a01b0381166100ad5760405162461bcd60e51b815260206004820152601260248201527119195d95d85b1b195d081c995c5d5a5c995960721b604482015260640161004f565b600380546001600160a01b0319166001600160a01b0392909216919091179055610150565b600180546001600160a01b038381166001600160a01b0319831681179093556040519116919082907f8be0079c531659141344cd1fd0a4f28419497f9722a3daafe3b4186f6b6457e0905f90a35050565b5f60208284031215610133575f5ffd5b81516001600160a01b0381168114610149575f5ffd5b9392505050565b6117478061015d5f395ff3fe6080604052600436106100dc575f3560e01c8063a4a9a4ad1161007c578063e9173b3a11610057578063e9173b3a1461024d578063eff3d30614610260578063f16277bb14610275578063f2fde38b146102a1575f5ffd5b8063a4a9a4ad146101d1578063b9181611146101f0578063ba5708271461022e575f5ffd5b8063711bf9b2116100b7578063711bf9b21461014e578063715018a61461016d5780638da5cb5b146101815780638ea5220f146101b2575f5ffd5b80631da7d16a146100e75780631f53ac02146101085780636a11d3ab14610127575f5ffd5b366100e357005b5f5ffd5b3480156100f2575f5ffd5b50610106610101366004611436565b6102c0565b005b348015610113575f5ffd5b506101066101223660046114cb565b610a04565b348015610132575f5ffd5b5061013b600581565b6040519081526020015b60405180910390f35b348015610159575f5ffd5b506101066101683660046114eb565b610a79565b348015610178575f5ffd5b50610106610aab565b34801561018c575f5ffd5b506001546001600160a01b03165b6040516001600160a01b039091168152602001610145565b3480156101bd575f5ffd5b5060035461019a906001600160a01b031681565b3480156101dc575f5ffd5b506101066101eb366004611524565b610abe565b3480156101fb575f5ffd5b5061021e61020a3660046114cb565b60056020525f908152604090205460ff1681565b6040519015158152602001610145565b348015610239575f5ffd5b5061013b61024836600461153b565b610d0c565b61010661025b366004611524565b610e82565b34801561026b575f5ffd5b5061013b60025481565b348015610280575f5ffd5b5061029461028f366004611524565b6110cc565b6040516101459190611592565b3480156102ac575f5ffd5b506101066102bb3660046114cb565b611138565b6102c8611172565b5f8381526004602052604090205483906001600160a01b03163314806102fc5750335f9081526005602052604090205460ff165b806103205750336103156001546001600160a01b031690565b6001600160a01b0316145b6103715760405162461bcd60e51b815260206004820152601b60248201527f4e6f7420617574686f72697a656420746f20656e64206c6f626279000000000060448201526064015b60405180910390fd5b5f8481526004602052604081209060038201546301000000900460ff16600181111561039f5761039f6115dd565b146103dc5760405162461bcd60e51b815260206004820152600d60248201526c185b1c9958591e48195b991959609a1b6044820152606401610368565b6004810154600211156104265760405162461bcd60e51b81526020600482015260126024820152716e6f7420656e6f75676820706c617965727360701b6044820152606401610368565b5f600382015462010000900460ff166001811115610446576104466115dd565b0361049757600183146104925760405162461bcd60e51b81526020600482015260146024820152732122a0a9aa103732b2b2399018903bb4b73732b960611b6044820152606401610368565b6104f5565b600183108015906104a9575060038311155b6104f55760405162461bcd60e51b815260206004820152601960248201527f434c4153534943206e6565647320312d332077696e6e657273000000000000006044820152606401610368565b5f5b8381101561065457816005015f868684818110610516576105166115f1565b905060200201602081019061052b91906114cb565b6001600160a01b0316815260208101919091526040015f205460ff1661058c5760405162461bcd60e51b81526020600482015260166024820152751dda5b9b995c881b9bdd081c185c9d1a58da5c185b9d60521b6044820152606401610368565b5f610598826001611619565b90505b8481101561064b578585828181106105b5576105b56115f1565b90506020020160208101906105ca91906114cb565b6001600160a01b03168686848181106105e5576105e56115f1565b90506020020160208101906105fa91906114cb565b6001600160a01b0316036106435760405162461bcd60e51b815260206004820152601060248201526f323ab83634b1b0ba32903bb4b73732b960811b6044820152606401610368565b60010161059b565b506001016104f7565b5060038101805463ff00000019166301000000179055600481015460028201545f9161067f91611632565b90505f606461068f600584611632565b6106999190611649565b90505f6106a68284611668565b60018501549091506001600160a01b03166106d6576003546106d1906001600160a01b03168361119a565b6106f5565b60035460018501546106f5916001600160a01b03918216911684611232565b6003546040518381526001600160a01b039091169089907f92f3bfc40bb172da28c752f0e306286ffd8044dacf3617d8fa730bb2cf57537b9060200160405180910390a35f600385015462010000900460ff166001811115610759576107596115dd565b036107ad575f87875f818110610771576107716115f1565b905060200201602081019061078691906114cb565b600186015490915082906107a6908b906001600160a01b03168484611291565b50506109ad565b5f60646107bb83603c611632565b6107c59190611649565b90505f60646107d5846014611632565b6107df9190611649565b90505f60646107ef85600f611632565b6107f99190611649565b90505f60018a10610850576001880154610843908d906001600160a01b03168d8d5f81610828576108286115f1565b905060200201602081019061083d91906114cb565b87611291565b61084d8482611619565b90505b60028a106108a95760018089015461089c918e916001600160a01b0316908e908e90818110610881576108816115f1565b905060200201602081019061089691906114cb565b86611291565b6108a68382611619565b90505b60038a106109005760018801546108f3908d906001600160a01b03168d8d60028181106108d8576108d86115f1565b90506020020160208101906108ed91906114cb565b85611291565b6108fd8282611619565b90505b808511156109a8575f6109138287611668565b60018a01549091506001600160a01b03166109435760035461093e906001600160a01b03168261119a565b610962565b60035460018a0154610962916001600160a01b03918216911683611232565b6003546040518281526001600160a01b03909116908e907f92f3bfc40bb172da28c752f0e306286ffd8044dacf3617d8fa730bb2cf57537b9060200160405180910390a3505b505050505b336001600160a01b0316887fe7d1b79d5f7ed90d7715887f7c54f2efb303fc3ea48b770c52c2fab17ffa5c1789896040516109e992919061167b565b60405180910390a350505050506109ff60015f55565b505050565b610a0c611313565b6001600160a01b038116610a575760405162461bcd60e51b815260206004820152601260248201527119195d95d85b1b195d081c995c5d5a5c995960721b6044820152606401610368565b600380546001600160a01b0319166001600160a01b0392909216919091179055565b610a81611313565b6001600160a01b03919091165f908152600560205260409020805460ff1916911515919091179055565b610ab3611313565b610abc5f611340565b565b610ac6611172565b5f8181526004602052604090205481906001600160a01b0316331480610afa5750335f9081526005602052604090205460ff165b80610b1e575033610b136001546001600160a01b031690565b6001600160a01b0316145b610b6a5760405162461bcd60e51b815260206004820152601b60248201527f4e6f7420617574686f72697a656420746f20656e64206c6f62627900000000006044820152606401610368565b5f8281526004602052604081209060038201546301000000900460ff166001811115610b9857610b986115dd565b14610bd65760405162461bcd60e51b815260206004820152600e60248201526d3637b1313c903737ba1037b832b760911b6044820152606401610368565b60038101805463ff000000191663010000001790555f5b6004820154811015610cb6575f826004018281548110610c0f57610c0f6115f1565b5f9182526020909120015460018401546001600160a01b03918216925016610c4457610c3f81846002015461119a565b610c65565b60028301546001840154610c65916001600160a01b03909116908390611232565b806001600160a01b0316857f5f7341a552ae2d452b071917104c05fbac3663936a69be768a05c40605056e7d8560020154604051610ca591815260200190565b60405180910390a350600101610bed565b50604080515f81526020810191829052339185917fe7d1b79d5f7ed90d7715887f7c54f2efb303fc3ea48b770c52c2fab17ffa5c1791610cf69190611592565b60405180910390a35050610d0960015f55565b50565b5f5f8411610d495760405162461bcd60e51b815260206004820152600a6024820152690656e7472794665653e360b41b6044820152606401610368565b60028361ffff161015610d8e5760405162461bcd60e51b815260206004820152600d60248201526c6d696e203220706c617965727360981b6044820152606401610368565b600160025f828254610da09190611619565b9091555050600280545f8181526004602052604090208054336001600160a01b0319918216178255600180830180549092166001600160a01b038b161790915592810187905560038101805461ffff19811661ffff8916908117835593949293879362ffffff19909216179062010000908490811115610e2257610e226115dd565b021790555060038101805463ff00000019169055604051339083907f50ced92c6370d952755194eec7ad4544a130a77bb29a5f6609a48057ae35c25390610e70908b908b908b908b906116c5565b60405180910390a35095945050505050565b610e8a611172565b5f8181526004602052604081209060038201546301000000900460ff166001811115610eb857610eb86115dd565b14610ef65760405162461bcd60e51b815260206004820152600e60248201526d3637b1313c903737ba1037b832b760911b6044820152606401610368565b335f90815260058201602052604090205460ff1615610f485760405162461bcd60e51b815260206004820152600e60248201526d185b1c9958591e481a9bda5b995960921b6044820152606401610368565b6003810154600482015461ffff90911611610f925760405162461bcd60e51b815260206004820152600a6024820152691b1bd8989e48199d5b1b60b21b6044820152606401610368565b60018101546001600160a01b0316610fee5780600201543414610fe95760405162461bcd60e51b815260206004820152600f60248201526e696e636f72726563742076616c756560881b6044820152606401610368565b611052565b341561102f5760405162461bcd60e51b815260206004820152601060248201526f646f6e742073656e64206e617469766560801b6044820152606401610368565b60028101546001820154611052916001600160a01b039091169033903090611391565b600481018054600181810183555f928352602080842090920180546001600160a01b03191633908117909155808452600585019092526040808420805460ff191690921790915551909184917f87969bc7faf902221a147b95ceba76e011c5efb0339a0a8ee7a2bb82d9cfbbd69190a350610d0960015f55565b5f8181526004602081815260409283902090910180548351818402810184019094528084526060939283018282801561112c57602002820191905f5260205f20905b81546001600160a01b0316815260019091019060200180831161110e575b50505050509050919050565b611140611313565b6001600160a01b03811661116957604051631e4fbdf760e01b81525f6004820152602401610368565b610d0981611340565b60025f540361119457604051633ee5aeb560e01b815260040160405180910390fd5b60025f55565b5f826001600160a01b0316826040515f6040518083038185875af1925050503d805f81146111e3576040519150601f19603f3d011682016040523d82523d5f602084013e6111e8565b606091505b50509050806109ff5760405162461bcd60e51b81526020600482015260166024820152751b985d1a5d99481d1c985b9cd9995c8819985a5b195960521b6044820152606401610368565b6040516001600160a01b038381166024830152604482018390526109ff91859182169063a9059cbb906064015b604051602081830303815290604052915060e01b6020820180516001600160e01b0383818316178352505050506113ca565b801561130d576001600160a01b0383166112b4576112af828261119a565b6112c8565b6112c86001600160a01b0384168383611232565b816001600160a01b0316847f5f7341a552ae2d452b071917104c05fbac3663936a69be768a05c40605056e7d8360405161130491815260200190565b60405180910390a35b50505050565b6001546001600160a01b03163314610abc5760405163118cdaa760e01b8152336004820152602401610368565b600180546001600160a01b038381166001600160a01b0319831681179093556040519116919082907f8be0079c531659141344cd1fd0a4f28419497f9722a3daafe3b4186f6b6457e0905f90a35050565b6040516001600160a01b03848116602483015283811660448301526064820183905261130d9186918216906323b872dd9060840161125f565b5f5f60205f8451602086015f885af1806113e9576040513d5f823e3d81fd5b50505f513d9150811561140057806001141561140d565b6001600160a01b0384163b155b1561130d57604051635274afe760e01b81526001600160a01b0385166004820152602401610368565b5f5f5f60408486031215611448575f5ffd5b83359250602084013567ffffffffffffffff811115611465575f5ffd5b8401601f81018613611475575f5ffd5b803567ffffffffffffffff81111561148b575f5ffd5b8660208260051b840101111561149f575f5ffd5b939660209190910195509293505050565b80356001600160a01b03811681146114c6575f5ffd5b919050565b5f602082840312156114db575f5ffd5b6114e4826114b0565b9392505050565b5f5f604083850312156114fc575f5ffd5b611505836114b0565b915060208301358015158114611519575f5ffd5b809150509250929050565b5f60208284031215611534575f5ffd5b5035919050565b5f5f5f5f6080858703121561154e575f5ffd5b611557856114b0565b935060208501359250604085013561ffff81168114611574575f5ffd5b9150606085013560028110611587575f5ffd5b939692955090935050565b602080825282518282018190525f918401906040840190835b818110156115d25783516001600160a01b03168352602093840193909201916001016115ab565b509095945050505050565b634e487b7160e01b5f52602160045260245ffd5b634e487b7160e01b5f52603260045260245ffd5b634e487b7160e01b5f52601160045260245ffd5b8082018082111561162c5761162c611605565b92915050565b808202811582820484141761162c5761162c611605565b5f8261166357634e487b7160e01b5f52601260045260245ffd5b500490565b8181038181111561162c5761162c611605565b602080825281018290525f8360408301825b858110156116bb576001600160a01b036116a6846114b0565b1682526020928301929091019060010161168d565b5095945050505050565b6001600160a01b03851681526020810184905261ffff83166040820152608081016002831061170257634e487b7160e01b5f52602160045260245ffd5b8260608301529594505050505056fea2646970667358221220d5ce4795e9b9066e3d9ed2a5af7407de9629cf56772293d2e45881342d6768b564736f6c634300081e0033","linkReferences":{}},"methodIdentifiers":{"DEV_FEE_PCT()":"6a11d3ab","authorized(address)":"b9181611","cancelLobby(uint256)":"a4a9a4ad","createLobby(address,uint256,uint16,uint8)":"ba570827","devWallet()":"8ea5220f","endLobby(uint256,address[])":"1da7d16a","getLobbyPlayers(uint256)":"f16277bb","joinLobby(uint256)":"e9173b3a","lobbyCount()":"eff3d306","owner()":"8da5cb5b","renounceOwnership()":"715018a6","setAuthorized(address,bool)":"711bf9b2","setDevWallet(address)":"1f53ac02","transferOwnership(address)":"f2fde38b"},"id":1}