{"abi":[{"type":"constructor","inputs":[{"name":"_devWallet","type":"address","internalType":"address"}],"stateMutability":"nonpayable"},{"type":"receive","stateMutability":"payable"},{"type":"function","name":"DEV_FEE_PCT","inputs":[],"outputs":[{"name":"","type":"uint256","internalType":"uint256"}],"stateMutability":"view"},{"type":"function","name":"authorized","inputs":[{"name":"","type":"address","internalType":"address"}],"outputs":[{"name":"","type":"bool","internalType":"bool"}],"stateMutability":"view"},{"type":"function","name":"cancelLobby","inputs":[{"name":"lobbyId","type":"uint256","internalType":"uint256"}],"outputs":[],"stateMutability":"nonpayable"},{"type":"function","name":"createLobby","inputs":[{"name":"token","type":"address","internalType":"address"},{"name":"entryFee","type":"uint256","internalType":"uint256"},{"name":"maxPlayers","type":"uint16","internalType":"uint16"},{"name":"mode","type":"uint8","internalType":"enum UnoLobby.Mode"}],"outputs":[{"name":"","type":"uint256","internalType":"uint256"}],"stateMutability":"nonpayable"},{"type":"function","name":"devWallet","inputs":[],"outputs":[{"name":"","type":"address","internalType":"address"}],"stateMutability":"view"},{"type":"function","name":"endLobby","inputs":[{"name":"lobbyId","type":"uint256","internalType":"uint256"},{"name":"winners","type":"address[]","internalType":"address[]"}],"outputs":[],"stateMutability":"nonpayable"},{"type":"function","name":"getLobbyPlayers","inputs":[{"name":"lobbyId","type":"uint256","internalType":"uint256"}],"outputs":[{"name":"","type":"address[]","internalType":"address[]"}],"stateMutability":"view"},{"type":"function","name":"joinLobby","inputs":[{"name":"lobbyId","type":"uint256","internalType":"uint256"}],"outputs":[],"stateMutability":"payable"},{"type":"function","name":"lobbyCount","inputs":[],"outputs":[{"name":"","type":"uint256","internalType":"uint256"}],"stateMutability":"view"},{"type":"function","name":"owner","inputs":[],"outputs":[{"name":"","type":"address","internalType":"address"}],"stateMutability":"view"},{"type":"function","name":"renounceOwnership","inputs":[],"outputs":[],"stateMutability":"nonpayable"},{"type":"function","name":"setAuthorized","inputs":[{"name":"who","type":"address","internalType":"address"},{"name":"ok","type":"bool","internalType":"bool"}],"outputs":[],"stateMutability":"nonpayable"},{"type":"function","name":"setDevWallet","inputs":[{"name":"_devWallet","type":"address","internalType":"address"}],"outputs":[],"stateMutability":"nonpayable"},{"type":"function","name":"transferOwnership","inputs":[{"name":"newOwner","type":"address","internalType":"address"}],"outputs":[],"stateMutability":"nonpayable"},{"type":"event","name":"FeeTaken","inputs":[{"name":"lobbyId","type":"uint256","indexed":true,"internalType":"uint256"},{"name":"to","type":"address","indexed":true,"internalType":"address"},{"name":"amount","type":"uint256","indexed":false,"internalType":"uint256"}],"anonymous":false},{"type":"event","name":"LobbyCreated","inputs":[{"name":"lobbyId","type":"uint256","indexed":true,"internalType":"uint256"},{"name":"creator","type":"address","indexed":true,"internalType":"address"},{"name":"token","type":"address","indexed":false,"internalType":"address"},{"name":"entryFee","type":"uint256","indexed":false,"internalType":"uint256"},{"name":"maxPlayers","type":"uint16","indexed":false,"internalType":"uint16"},{"name":"mode","type":"uint8","indexed":false,"internalType":"enum UnoLobby.Mode"}],"anonymous":false},{"type":"event","name":"LobbyEnded","inputs":[{"name":"lobbyId","type":"uint256","indexed":true,"internalType":"uint256"},{"name":"endedBy","type":"address","indexed":true,"internalType":"address"},{"name":"winners","type":"address[]","indexed":false,"internalType":"address[]"}],"anonymous":false},{"type":"event","name":"OwnershipTransferred","inputs":[{"name":"previousOwner","type":"address","indexed":true,"internalType":"address"},{"name":"newOwner","type":"address","indexed":true,"internalType":"address"}],"anonymous":false},{"type":"event","name":"Payout","inputs":[{"name":"lobbyId","type":"uint256","indexed":true,"internalType":"uint256"},{"name":"to","type":"address","indexed":true,"internalType":"address"},{"name":"amount","type":"uint256","indexed":false,"internalType":"uint256"}],"anonymous":false},{"type":"event","name":"PlayerJoined","inputs":[{"name":"lobbyId","type":"uint256","indexed":true,"internalType":"uint256"},{"name":"player","type":"address","indexed":true,"internalType":"address"}],"anonymous":false},{"type":"error","name":"OwnableInvalidOwner","inputs":[{"name":"owner","type":"address","internalType":"address"}]},{"type":"error","name":"OwnableUnauthorizedAccount","inputs":[{"name":"account","type":"address","internalType":"address"}]},{"type":"error","name":"ReentrancyGuardReentrantCall","inputs":[]},{"type":"error","name":"SafeERC20FailedOperation","inputs":[{"name":"token","type":"address","internalType":"address"}]}],"bytecode":{"object":"0x608060405234801561000f575f5ffd5b506040516131343803806131348339818101604052810190610031919061028e565b3360015f819055505f73ffffffffffffffffffffffffffffffffffffffff168173ffffffffffffffffffffffffffffffffffffffff16036100a9575f6040517f1e4fbdf70000000000000000000000000000000000000000000000000000000081526004016100a091906102c8565b60405180910390fd5b6100b88161016d60201b60201c565b505f73ffffffffffffffffffffffffffffffffffffffff168173ffffffffffffffffffffffffffffffffffffffff1603610127576040517f08c379a000000000000000000000000000000000000000000000000000000000815260040161011e9061033b565b60405180910390fd5b8060035f6101000a81548173ffffffffffffffffffffffffffffffffffffffff021916908373ffffffffffffffffffffffffffffffffffffffff16021790555050610359565b5f60015f9054906101000a900473ffffffffffffffffffffffffffffffffffffffff1690508160015f6101000a81548173ffffffffffffffffffffffffffffffffffffffff021916908373ffffffffffffffffffffffffffffffffffffffff1602179055508173ffffffffffffffffffffffffffffffffffffffff168173ffffffffffffffffffffffffffffffffffffffff167f8be0079c531659141344cd1fd0a4f28419497f9722a3daafe3b4186f6b6457e060405160405180910390a35050565b5f5ffd5b5f73ffffffffffffffffffffffffffffffffffffffff82169050919050565b5f61025d82610234565b9050919050565b61026d81610253565b8114610277575f5ffd5b50565b5f8151905061028881610264565b92915050565b5f602082840312156102a3576102a2610230565b5b5f6102b08482850161027a565b91505092915050565b6102c281610253565b82525050565b5f6020820190506102db5f8301846102b9565b92915050565b5f82825260208201905092915050565b7f64657657616c6c657420726571756972656400000000000000000000000000005f82015250565b5f6103256012836102e1565b9150610330826102f1565b602082019050919050565b5f6020820190508181035f83015261035281610319565b9050919050565b612dce806103665f395ff3fe6080604052600436106100e0575f3560e01c8063a4a9a4ad1161007e578063e9173b3a11610058578063e9173b3a14610297578063eff3d306146102b3578063f16277bb146102dd578063f2fde38b14610319576100e7565b8063a4a9a4ad146101f7578063b91816111461021f578063ba5708271461025b576100e7565b8063711bf9b2116100ba578063711bf9b214610165578063715018a61461018d5780638da5cb5b146101a35780638ea5220f146101cd576100e7565b80631da7d16a146100eb5780631f53ac02146101135780636a11d3ab1461013b576100e7565b366100e757005b5f5ffd5b3480156100f6575f5ffd5b50610111600480360381019061010c9190611fe6565b610341565b005b34801561011e575f5ffd5b506101396004803603810190610134919061209d565b610ded565b005b348015610146575f5ffd5b5061014f610ea6565b60405161015c91906120d7565b60405180910390f35b348015610170575f5ffd5b5061018b60048036038101906101869190612125565b610eab565b005b348015610198575f5ffd5b506101a1610f0b565b005b3480156101ae575f5ffd5b506101b7610f1e565b6040516101c49190612172565b60405180910390f35b3480156101d8575f5ffd5b506101e1610f46565b6040516101ee9190612172565b60405180910390f35b348015610202575f5ffd5b5061021d6004803603810190610218919061218b565b610f6b565b005b34801561022a575f5ffd5b506102456004803603810190610240919061209d565b611371565b60405161025291906121c5565b60405180910390f35b348015610266575f5ffd5b50610281600480360381019061027c9190612238565b61138e565b60405161028e91906120d7565b60405180910390f35b6102b160048036038101906102ac919061218b565b6115b0565b005b3480156102be575f5ffd5b506102c761196e565b6040516102d491906120d7565b60405180910390f35b3480156102e8575f5ffd5b5061030360048036038101906102fe919061218b565b611974565b6040516103109190612353565b60405180910390f35b348015610324575f5ffd5b5061033f600480360381019061033a919061209d565b611a13565b005b610349611a97565b8260045f8281526020019081526020015f205f015f9054906101000a900473ffffffffffffffffffffffffffffffffffffffff1673ffffffffffffffffffffffffffffffffffffffff163373ffffffffffffffffffffffffffffffffffffffff1614806103fc575060055f3373ffffffffffffffffffffffffffffffffffffffff1673ffffffffffffffffffffffffffffffffffffffff1681526020019081526020015f205f9054906101000a900460ff165b8061043957503373ffffffffffffffffffffffffffffffffffffffff16610421610f1e565b73ffffffffffffffffffffffffffffffffffffffff16145b610478576040517f08c379a000000000000000000000000000000000000000000000000000000000815260040161046f906123cd565b60405180910390fd5b5f60045f8681526020019081526020015f2090505f600181111561049f5761049e6123eb565b5b8160030160039054906101000a900460ff1660018111156104c3576104c26123eb565b5b14610503576040517f08c379a00000000000000000000000000000000000000000000000000000000081526004016104fa90612462565b60405180910390fd5b60028160040180549050101561054e576040517f08c379a0000000000000000000000000000000000000000000000000000000008152600401610545906124ca565b60405180910390fd5b5f6001811115610561576105606123eb565b5b8160030160029054906101000a900460ff166001811115610585576105846123eb565b5b036105d557600184849050146105d0576040517f08c379a00000000000000000000000000000000000000000000000000000000081526004016105c790612532565b60405180910390fd5b61062d565b600184849050101580156105ed575060038484905011155b61062c576040517f08c379a00000000000000000000000000000000000000000000000000000000081526004016106239061259a565b60405180910390fd5b5b5f5f90505b848490508110156107e257816005015f868684818110610655576106546125b8565b5b905060200201602081019061066a919061209d565b73ffffffffffffffffffffffffffffffffffffffff1673ffffffffffffffffffffffffffffffffffffffff1681526020019081526020015f205f9054906101000a900460ff166106ef576040517f08c379a00000000000000000000000000000000000000000000000000000000081526004016106e69061262f565b60405180910390fd5b5f6001826106fd919061267a565b90505b858590508110156107d45785858281811061071e5761071d6125b8565b5b9050602002016020810190610733919061209d565b73ffffffffffffffffffffffffffffffffffffffff1686868481811061075c5761075b6125b8565b5b9050602002016020810190610771919061209d565b73ffffffffffffffffffffffffffffffffffffffff16036107c7576040517f08c379a00000000000000000000000000000000000000000000000000000000081526004016107be906126f7565b60405180910390fd5b8080600101915050610700565b508080600101915050610632565b5060018160030160036101000a81548160ff0219169083600181111561080b5761080a6123eb565b5b02179055505f816004018054905082600201546108289190612715565b90505f606460058361083a9190612715565b6108449190612783565b90505f818361085391906127b3565b90505f73ffffffffffffffffffffffffffffffffffffffff16846001015f9054906101000a900473ffffffffffffffffffffffffffffffffffffffff1673ffffffffffffffffffffffffffffffffffffffff16036108db576108d660035f9054906101000a900473ffffffffffffffffffffffffffffffffffffffff1683611adb565b61094b565b61094a60035f9054906101000a900473ffffffffffffffffffffffffffffffffffffffff1683866001015f9054906101000a900473ffffffffffffffffffffffffffffffffffffffff1673ffffffffffffffffffffffffffffffffffffffff16611b889092919063ffffffff16565b5b60035f9054906101000a900473ffffffffffffffffffffffffffffffffffffffff1673ffffffffffffffffffffffffffffffffffffffff16887f92f3bfc40bb172da28c752f0e306286ffd8044dacf3617d8fa730bb2cf57537b846040516109b391906120d7565b60405180910390a35f60018111156109ce576109cd6123eb565b5b8460030160029054906101000a900460ff1660018111156109f2576109f16123eb565b5b03610a5c575f87875f818110610a0b57610a0a6125b8565b5b9050602002016020810190610a20919061209d565b90505f829050610a558a876001015f9054906101000a900473ffffffffffffffffffffffffffffffffffffffff168484611c07565b5050610d8a565b5f6064603c83610a6c9190612715565b610a769190612783565b90505f6064601484610a889190612715565b610a929190612783565b90505f6064600f85610aa49190612715565b610aae9190612783565b90505f5f905060018b8b905010610b2457610b158c896001015f9054906101000a900473ffffffffffffffffffffffffffffffffffffffff168d8d5f818110610afa57610af96125b8565b5b9050602002016020810190610b0f919061209d565b87611c07565b8381610b21919061267a565b90505b60028b8b905010610b9557610b868c896001015f9054906101000a900473ffffffffffffffffffffffffffffffffffffffff168d8d6001818110610b6b57610b6a6125b8565b5b9050602002016020810190610b80919061209d565b86611c07565b8281610b92919061267a565b90505b60038b8b905010610c0657610bf78c896001015f9054906101000a900473ffffffffffffffffffffffffffffffffffffffff168d8d6002818110610bdc57610bdb6125b8565b5b9050602002016020810190610bf1919061209d565b85611c07565b8181610c03919061267a565b90505b80851115610d85575f8186610c1b91906127b3565b90505f73ffffffffffffffffffffffffffffffffffffffff16896001015f9054906101000a900473ffffffffffffffffffffffffffffffffffffffff1673ffffffffffffffffffffffffffffffffffffffff1603610ca357610c9e60035f9054906101000a900473ffffffffffffffffffffffffffffffffffffffff1682611adb565b610d13565b610d1260035f9054906101000a900473ffffffffffffffffffffffffffffffffffffffff16828b6001015f9054906101000a900473ffffffffffffffffffffffffffffffffffffffff1673ffffffffffffffffffffffffffffffffffffffff16611b889092919063ffffffff16565b5b60035f9054906101000a900473ffffffffffffffffffffffffffffffffffffffff1673ffffffffffffffffffffffffffffffffffffffff168d7f92f3bfc40bb172da28c752f0e306286ffd8044dacf3617d8fa730bb2cf57537b83604051610d7b91906120d7565b60405180910390a3505b505050505b3373ffffffffffffffffffffffffffffffffffffffff16887fe7d1b79d5f7ed90d7715887f7c54f2efb303fc3ea48b770c52c2fab17ffa5c178989604051610dd392919061286c565b60405180910390a35050505050610de8611cd3565b505050565b610df5611cdc565b5f73ffffffffffffffffffffffffffffffffffffffff168173ffffffffffffffffffffffffffffffffffffffff1603610e63576040517f08c379a0000000000000000000000000000000000000000000000000000000008152600401610e5a906128d8565b60405180910390fd5b8060035f6101000a81548173ffffffffffffffffffffffffffffffffffffffff021916908373ffffffffffffffffffffffffffffffffffffffff16021790555050565b600581565b610eb3611cdc565b8060055f8473ffffffffffffffffffffffffffffffffffffffff1673ffffffffffffffffffffffffffffffffffffffff1681526020019081526020015f205f6101000a81548160ff0219169083151502179055505050565b610f13611cdc565b610f1c5f611d63565b565b5f60015f9054906101000a900473ffffffffffffffffffffffffffffffffffffffff16905090565b60035f9054906101000a900473ffffffffffffffffffffffffffffffffffffffff1681565b610f73611a97565b8060045f8281526020019081526020015f205f015f9054906101000a900473ffffffffffffffffffffffffffffffffffffffff1673ffffffffffffffffffffffffffffffffffffffff163373ffffffffffffffffffffffffffffffffffffffff161480611026575060055f3373ffffffffffffffffffffffffffffffffffffffff1673ffffffffffffffffffffffffffffffffffffffff1681526020019081526020015f205f9054906101000a900460ff165b8061106357503373ffffffffffffffffffffffffffffffffffffffff1661104b610f1e565b73ffffffffffffffffffffffffffffffffffffffff16145b6110a2576040517f08c379a0000000000000000000000000000000000000000000000000000000008152600401611099906123cd565b60405180910390fd5b5f60045f8481526020019081526020015f2090505f60018111156110c9576110c86123eb565b5b8160030160039054906101000a900460ff1660018111156110ed576110ec6123eb565b5b1461112d576040517f08c379a000000000000000000000000000000000000000000000000000000000815260040161112490612940565b60405180910390fd5b60018160030160036101000a81548160ff02191690836001811115611155576111546123eb565b5b02179055505f5f90505b81600401805490508110156112cc575f826004018281548110611185576111846125b8565b5b905f5260205f20015f9054906101000a900473ffffffffffffffffffffffffffffffffffffffff1690505f73ffffffffffffffffffffffffffffffffffffffff16836001015f9054906101000a900473ffffffffffffffffffffffffffffffffffffffff1673ffffffffffffffffffffffffffffffffffffffff160361121857611213818460020154611adb565b61126b565b61126a818460020154856001015f9054906101000a900473ffffffffffffffffffffffffffffffffffffffff1673ffffffffffffffffffffffffffffffffffffffff16611b889092919063ffffffff16565b5b8073ffffffffffffffffffffffffffffffffffffffff16857f5f7341a552ae2d452b071917104c05fbac3663936a69be768a05c40605056e7d85600201546040516112b691906120d7565b60405180910390a350808060010191505061115f565b503373ffffffffffffffffffffffffffffffffffffffff16837fe7d1b79d5f7ed90d7715887f7c54f2efb303fc3ea48b770c52c2fab17ffa5c175f67ffffffffffffffff8111156113205761131f61295e565b5b60405190808252806020026020018201604052801561134e5781602001602082028036833780820191505090505b5060405161135c9190612353565b60405180910390a3505061136e611cd3565b50565b6005602052805f5260405f205f915054906101000a900460ff1681565b5f5f84116113d1576040517f08c379a00000000000000000000000000000000000000000000000000000000081526004016113c8906129d5565b60405180910390fd5b60028361ffff161015611419576040517f08c379a000000000000000000000000000000000000000000000000000000000815260040161141090612a3d565b60405180910390fd5b600160025f82825461142b919061267a565b925050819055505f60025490505f60045f8381526020019081526020015f20905033815f015f6101000a81548173ffffffffffffffffffffffffffffffffffffffff021916908373ffffffffffffffffffffffffffffffffffffffff16021790555086816001015f6101000a81548173ffffffffffffffffffffffffffffffffffffffff021916908373ffffffffffffffffffffffffffffffffffffffff16021790555085816002018190555084816003015f6101000a81548161ffff021916908361ffff160217905550838160030160026101000a81548160ff0219169083600181111561151d5761151c6123eb565b5b02179055505f8160030160036101000a81548160ff02191690836001811115611549576115486123eb565b5b02179055503373ffffffffffffffffffffffffffffffffffffffff16827f50ced92c6370d952755194eec7ad4544a130a77bb29a5f6609a48057ae35c2538989898960405161159b9493929190612ab0565b60405180910390a38192505050949350505050565b6115b8611a97565b5f60045f8381526020019081526020015f2090505f60018111156115df576115de6123eb565b5b8160030160039054906101000a900460ff166001811115611603576116026123eb565b5b14611643576040517f08c379a000000000000000000000000000000000000000000000000000000000815260040161163a90612940565b60405180910390fd5b806005015f3373ffffffffffffffffffffffffffffffffffffffff1673ffffffffffffffffffffffffffffffffffffffff1681526020019081526020015f205f9054906101000a900460ff16156116cf576040517f08c379a00000000000000000000000000000000000000000000000000000000081526004016116c690612b3d565b60405180910390fd5b806003015f9054906101000a900461ffff1661ffff1681600401805490501061172d576040517f08c379a000000000000000000000000000000000000000000000000000000000815260040161172490612ba5565b60405180910390fd5b5f73ffffffffffffffffffffffffffffffffffffffff16816001015f9054906101000a900473ffffffffffffffffffffffffffffffffffffffff1673ffffffffffffffffffffffffffffffffffffffff16036117ce57806002015434146117c9576040517f08c379a00000000000000000000000000000000000000000000000000000000081526004016117c090612c0d565b60405180910390fd5b611865565b5f3414611810576040517f08c379a000000000000000000000000000000000000000000000000000000000815260040161180790612c75565b60405180910390fd5b61186433308360020154846001015f9054906101000a900473ffffffffffffffffffffffffffffffffffffffff1673ffffffffffffffffffffffffffffffffffffffff16611e26909392919063ffffffff16565b5b8060040133908060018154018082558091505060019003905f5260205f20015f9091909190916101000a81548173ffffffffffffffffffffffffffffffffffffffff021916908373ffffffffffffffffffffffffffffffffffffffff1602179055506001816005015f3373ffffffffffffffffffffffffffffffffffffffff1673ffffffffffffffffffffffffffffffffffffffff1681526020019081526020015f205f6101000a81548160ff0219169083151502179055503373ffffffffffffffffffffffffffffffffffffffff16827f87969bc7faf902221a147b95ceba76e011c5efb0339a0a8ee7a2bb82d9cfbbd660405160405180910390a35061196b611cd3565b50565b60025481565b606060045f8381526020019081526020015f20600401805480602002602001604051908101604052809291908181526020018280548015611a0757602002820191905f5260205f20905b815f9054906101000a900473ffffffffffffffffffffffffffffffffffffffff1673ffffffffffffffffffffffffffffffffffffffff16815260200190600101908083116119be575b50505050509050919050565b611a1b611cdc565b5f73ffffffffffffffffffffffffffffffffffffffff168173ffffffffffffffffffffffffffffffffffffffff1603611a8b575f6040517f1e4fbdf7000000000000000000000000000000000000000000000000000000008152600401611a829190612172565b60405180910390fd5b611a9481611d63565b50565b60025f5403611ad2576040517f3ee5aeb500000000000000000000000000000000000000000000000000000000815260040160405180910390fd5b60025f81905550565b5f8273ffffffffffffffffffffffffffffffffffffffff1682604051611b0090612cc0565b5f6040518083038185875af1925050503d805f8114611b3a576040519150601f19603f3d011682016040523d82523d5f602084013e611b3f565b606091505b5050905080611b83576040517f08c379a0000000000000000000000000000000000000000000000000000000008152600401611b7a90612d1e565b60405180910390fd5b505050565b611c02838473ffffffffffffffffffffffffffffffffffffffff1663a9059cbb8585604051602401611bbb929190612d3c565b604051602081830303815290604052915060e01b6020820180517bffffffffffffffffffffffffffffffffffffffffffffffffffffffff8381831617835250505050611ea8565b505050565b5f810315611ccd575f73ffffffffffffffffffffffffffffffffffffffff168373ffffffffffffffffffffffffffffffffffffffff1603611c5157611c4c8282611adb565b611c7d565b611c7c82828573ffffffffffffffffffffffffffffffffffffffff16611b889092919063ffffffff16565b5b8173ffffffffffffffffffffffffffffffffffffffff16847f5f7341a552ae2d452b071917104c05fbac3663936a69be768a05c40605056e7d83604051611cc491906120d7565b60405180910390a35b50505050565b60015f81905550565b611ce4611f43565b73ffffffffffffffffffffffffffffffffffffffff16611d02610f1e565b73ffffffffffffffffffffffffffffffffffffffff1614611d6157611d25611f43565b6040517f118cdaa7000000000000000000000000000000000000000000000000000000008152600401611d589190612172565b60405180910390fd5b565b5f60015f9054906101000a900473ffffffffffffffffffffffffffffffffffffffff1690508160015f6101000a81548173ffffffffffffffffffffffffffffffffffffffff021916908373ffffffffffffffffffffffffffffffffffffffff1602179055508173ffffffffffffffffffffffffffffffffffffffff168173ffffffffffffffffffffffffffffffffffffffff167f8be0079c531659141344cd1fd0a4f28419497f9722a3daafe3b4186f6b6457e060405160405180910390a35050565b611ea2848573ffffffffffffffffffffffffffffffffffffffff166323b872dd868686604051602401611e5b93929190612d63565b604051602081830303815290604052915060e01b6020820180517bffffffffffffffffffffffffffffffffffffffffffffffffffffffff8381831617835250505050611ea8565b50505050565b5f5f60205f8451602086015f885af180611ec7576040513d5f823e3d81fd5b3d92505f519150505f8214611ee0576001811415611efb565b5f8473ffffffffffffffffffffffffffffffffffffffff163b145b15611f3d57836040517f5274afe7000000000000000000000000000000000000000000000000000000008152600401611f349190612172565b60405180910390fd5b50505050565b5f33905090565b5f5ffd5b5f5ffd5b5f819050919050565b611f6481611f52565b8114611f6e575f5ffd5b50565b5f81359050611f7f81611f5b565b92915050565b5f5ffd5b5f5ffd5b5f5ffd5b5f5f83601f840112611fa657611fa5611f85565b5b8235905067ffffffffffffffff811115611fc357611fc2611f89565b5b602083019150836020820283011115611fdf57611fde611f8d565b5b9250929050565b5f5f5f60408486031215611ffd57611ffc611f4a565b5b5f61200a86828701611f71565b935050602084013567ffffffffffffffff81111561202b5761202a611f4e565b5b61203786828701611f91565b92509250509250925092565b5f73ffffffffffffffffffffffffffffffffffffffff82169050919050565b5f61206c82612043565b9050919050565b61207c81612062565b8114612086575f5ffd5b50565b5f8135905061209781612073565b92915050565b5f602082840312156120b2576120b1611f4a565b5b5f6120bf84828501612089565b91505092915050565b6120d181611f52565b82525050565b5f6020820190506120ea5f8301846120c8565b92915050565b5f8115159050919050565b612104816120f0565b811461210e575f5ffd5b50565b5f8135905061211f816120fb565b92915050565b5f5f6040838503121561213b5761213a611f4a565b5b5f61214885828601612089565b925050602061215985828601612111565b9150509250929050565b61216c81612062565b82525050565b5f6020820190506121855f830184612163565b92915050565b5f602082840312156121a05761219f611f4a565b5b5f6121ad84828501611f71565b91505092915050565b6121bf816120f0565b82525050565b5f6020820190506121d85f8301846121b6565b92915050565b5f61ffff82169050919050565b6121f4816121de565b81146121fe575f5ffd5b50565b5f8135905061220f816121eb565b92915050565b60028110612221575f5ffd5b50565b5f8135905061223281612215565b92915050565b5f5f5f5f608085870312156122505761224f611f4a565b5b5f61225d87828801612089565b945050602061226e87828801611f71565b935050604061227f87828801612201565b925050606061229087828801612224565b91505092959194509250565b5f81519050919050565b5f82825260208201905092915050565b5f819050602082019050919050565b6122ce81612062565b82525050565b5f6122df83836122c5565b60208301905092915050565b5f602082019050919050565b5f6123018261229c565b61230b81856122a6565b9350612316836122b6565b805f5b8381101561234657815161232d88826122d4565b9750612338836122eb565b925050600181019050612319565b5085935050505092915050565b5f6020820190508181035f83015261236b81846122f7565b905092915050565b5f82825260208201905092915050565b7f4e6f7420617574686f72697a656420746f20656e64206c6f62627900000000005f82015250565b5f6123b7601b83612373565b91506123c282612383565b602082019050919050565b5f6020820190508181035f8301526123e4816123ab565b9050919050565b7f4e487b71000000000000000000000000000000000000000000000000000000005f52602160045260245ffd5b7f616c726561647920656e646564000000000000000000000000000000000000005f82015250565b5f61244c600d83612373565b915061245782612418565b602082019050919050565b5f6020820190508181035f83015261247981612440565b9050919050565b7f6e6f7420656e6f75676820706c617965727300000000000000000000000000005f82015250565b5f6124b4601283612373565b91506124bf82612480565b602082019050919050565b5f6020820190508181035f8301526124e1816124a8565b9050919050565b7f4245415354206e6565647320312077696e6e65720000000000000000000000005f82015250565b5f61251c601483612373565b9150612527826124e8565b602082019050919050565b5f6020820190508181035f83015261254981612510565b9050919050565b7f434c4153534943206e6565647320312d332077696e6e657273000000000000005f82015250565b5f612584601983612373565b915061258f82612550565b602082019050919050565b5f6020820190508181035f8301526125b181612578565b9050919050565b7f4e487b71000000000000000000000000000000000000000000000000000000005f52603260045260245ffd5b7f77696e6e6572206e6f74207061727469636970616e74000000000000000000005f82015250565b5f612619601683612373565b9150612624826125e5565b602082019050919050565b5f6020820190508181035f8301526126468161260d565b9050919050565b7f4e487b71000000000000000000000000000000000000000000000000000000005f52601160045260245ffd5b5f61268482611f52565b915061268f83611f52565b92508282019050808211156126a7576126a661264d565b5b92915050565b7f6475706c69636174652077696e6e6572000000000000000000000000000000005f82015250565b5f6126e1601083612373565b91506126ec826126ad565b602082019050919050565b5f6020820190508181035f83015261270e816126d5565b9050919050565b5f61271f82611f52565b915061272a83611f52565b925082820261273881611f52565b9150828204841483151761274f5761274e61264d565b5b5092915050565b7f4e487b71000000000000000000000000000000000000000000000000000000005f52601260045260245ffd5b5f61278d82611f52565b915061279883611f52565b9250826127a8576127a7612756565b5b828204905092915050565b5f6127bd82611f52565b91506127c883611f52565b92508282039050818111156127e0576127df61264d565b5b92915050565b5f819050919050565b5f6127fd6020840184612089565b905092915050565b5f602082019050919050565b5f61281c83856122a6565b9350612827826127e6565b805f5b8581101561285f5761283c82846127ef565b61284688826122d4565b975061285183612805565b92505060018101905061282a565b5085925050509392505050565b5f6020820190508181035f830152612885818486612811565b90509392505050565b7f64657657616c6c657420726571756972656400000000000000000000000000005f82015250565b5f6128c2601283612373565b91506128cd8261288e565b602082019050919050565b5f6020820190508181035f8301526128ef816128b6565b9050919050565b7f6c6f626279206e6f74206f70656e0000000000000000000000000000000000005f82015250565b5f61292a600e83612373565b9150612935826128f6565b602082019050919050565b5f6020820190508181035f8301526129578161291e565b9050919050565b7f4e487b71000000000000000000000000000000000000000000000000000000005f52604160045260245ffd5b7f656e7472794665653e30000000000000000000000000000000000000000000005f82015250565b5f6129bf600a83612373565b91506129ca8261298b565b602082019050919050565b5f6020820190508181035f8301526129ec816129b3565b9050919050565b7f6d696e203220706c6179657273000000000000000000000000000000000000005f82015250565b5f612a27600d83612373565b9150612a32826129f3565b602082019050919050565b5f6020820190508181035f830152612a5481612a1b565b9050919050565b612a64816121de565b82525050565b60028110612a7b57612a7a6123eb565b5b50565b5f819050612a8b82612a6a565b919050565b5f612a9a82612a7e565b9050919050565b612aaa81612a90565b82525050565b5f608082019050612ac35f830187612163565b612ad060208301866120c8565b612add6040830185612a5b565b612aea6060830184612aa1565b95945050505050565b7f616c7265616479206a6f696e65640000000000000000000000000000000000005f82015250565b5f612b27600e83612373565b9150612b3282612af3565b602082019050919050565b5f6020820190508181035f830152612b5481612b1b565b9050919050565b7f6c6f6262792066756c6c000000000000000000000000000000000000000000005f82015250565b5f612b8f600a83612373565b9150612b9a82612b5b565b602082019050919050565b5f6020820190508181035f830152612bbc81612b83565b9050919050565b7f696e636f72726563742076616c756500000000000000000000000000000000005f82015250565b5f612bf7600f83612373565b9150612c0282612bc3565b602082019050919050565b5f6020820190508181035f830152612c2481612beb565b9050919050565b7f646f6e742073656e64206e6174697665000000000000000000000000000000005f82015250565b5f612c5f601083612373565b9150612c6a82612c2b565b602082019050919050565b5f6020820190508181035f830152612c8c81612c53565b9050919050565b5f81905092915050565b50565b5f612cab5f83612c93565b9150612cb682612c9d565b5f82019050919050565b5f612cca82612ca0565b9150819050919050565b7f6e6174697665207472616e73666572206661696c6564000000000000000000005f82015250565b5f612d08601683612373565b9150612d1382612cd4565b602082019050919050565b5f6020820190508181035f830152612d3581612cfc565b9050919050565b5f604082019050612d4f5f830185612163565b612d5c60208301846120c8565b9392505050565b5f606082019050612d765f830186612163565b612d836020830185612163565b612d9060408301846120c8565b94935050505056fea26469706673582212202f5a71e118190936263c822ba0d0d6b0bc2fada2b4797da6705819dcaa6e073264736f6c634300081e0033","linkReferences":{}},"methodIdentifiers":{"DEV_FEE_PCT()":"6a11d3ab","authorized(address)":"b9181611","cancelLobby(uint256)":"a4a9a4ad","createLobby(address,uint256,uint16,uint8)":"ba570827","devWallet()":"8ea5220f","endLobby(uint256,address[])":"1da7d16a","getLobbyPlayers(uint256)":"f16277bb","joinLobby(uint256)":"e9173b3a","lobbyCount()":"eff3d306","owner()":"8da5cb5b","renounceOwnership()":"715018a6","setAuthorized(address,bool)":"711bf9b2","setDevWallet(address)":"1f53ac02","transferOwnership(address)":"f2fde38b"},"id":0}